:100000000C943A010C9457010C9457010C9457012D
:100010000C9457010C9457010C9457010C94570100
:100020000C9457010C9457010C94751D0C94491EA7
:100030000C9485180C9457010C9457010C9457019B
:100040000C9457010C9457010C9457010C945701D0
:100050000C9457010C940B190C9457010C945701F4
:100060000C9457010C9457010C9457010C945701B0
:100070000C9457010C9457010C9457010C945701A0
:100080000C9457010C9457010C9457010C94570190
:100090000C9457010C9457010C9457010C94570180
:1000A0000C9457010C9457010C945701E000E200A6
:1000B00019002C000000E6005000E1001B000900C0
:1000C00010003600E4004B003900160015000D004A
:1000D0003700000028002B001A00210018000F0034
:1000E000E500300029001F0022001C00120034002F
:1000F00031001E0020001700230026002F004600BC
:10010000140008000A00240027002D004E000400FF
:1001100007000500250013002E0052001D000600F8
:1001200011000C0033002A005100E3002C000B00EA
:100130000E0038004C004F0016034F007200740090
:1001400068006F00200031003000780037000000A8
:100150001603680065006C006C006F0057006F00AC
:1001600072006C00640000000403090409023B00F3
:10017000020100A0FA0904000001030101000921A5
:100180001101000122400007058103080001090454
:1001900001000103000000092111010001227B0080
:1001A0000705820320000112010002000000088000
:1001B000BB0D0501000102000105010902A1018535
:1001C000020901A100050919012908150025019559
:1001D00008750181020501093009311581257F95D6
:1001E000027508810609381581257F9501750881FA
:1001F00006050C0A38021581257F950175088106D0
:10020000C0C005010980A101850319012AB70015A5
:100210000126B700950175108100C0050C0901A1E8
:1002200001850419012AA002150126A00295017575
:10023000108100C005010906A101050719E029E7A1
:100240001500250195087501810295017508810148
:100250000507190029FF150026FF0095067508817E
:10026000000508190129059505750191029501758B
:10027000039101C011241FBECFEFDAE0DEBFCDBF76
:1002800011E0A0E0B1E0E0E2F1E402C005900D92DF
:10029000AC38B107D9F722E0ACE8B1E001C01D925B
:1002A000A837B207E1F70E949A110C9478200C94B9
:1002B0000000CF93FB018A3A2DE59207F1F038F464
:1002C000873A9D4591F0C1E08C2FCF9108958B3AEC
:1002D0002DE59207F1F08C3A9D45A9F7C28185EE94
:1002E000CC2311F10E943A0306C0C281CC2361F3F2
:1002F00080E00E94E701C0E0E7CFC28183E0CC2329
:1003000059F00E94880745E064E083E00E945502AE
:10031000F2CFC28184E0F3CF0E94A90745E064E0F8
:1003200083E00E945502D0CF0E94D103CDCF81E05F
:1003300008950C94590108950C949B011F93CF9339
:10034000DF9300D000D00F92CDB7DEB749835A8338
:100350006B8330918F0189819A8131111DC0662391
:10036000B9F02223A9F00E947808182F682F8981FC
:100370009A810E94240869817A81812F0F900F90C1
:100380000F900F900F90DF91CF911F910C94320F2F
:100390000E945008182FEFCF0E94780869817A8157
:1003A000EDCFFC01262F40815181628173818481D0
:1003B0000C949E0181E00895CF93DF93EC0160E0FF
:1003C0000E94D101BE01DF91CF910C949C01CF928C
:1003D000DF92EF92FF92C12CD12C7601C39404C01E
:1003E000CC0CDD1CEE1CFF1C8A95D2F78C2D0E94D4
:1003F000CF0CC701B601FF90EF90DF90CF900C9427
:1004000026078F929F92AF92BF92CF92DF92EF9288
:10041000FF920F931F936B017C0181E090E0A0E0BD
:10042000B0E04C015D0104C0880C991CAA1CBB1CE7
:100430004A95D2F7B501A4014C015D0104C0880CB6
:10044000991CAA1CBB1C2A95D2F7482959296A294C
:100450007B2904C0880F991FAA1FBB1F0A95D2F7DA
:100460008A019B010C211D212E213F210417150714
:100470002607370789F48C299D29AE29BF29BC019D
:10048000CD011F910F91FF90EF90DF90CF90BF9023
:10049000AF909F908F90089580959095A095B0957E
:1004A0008C219D21AE21BF21EACF0F93382F262F1B
:1004B0006091BD017091BE018091BF019091C0011A
:1004C000042F432F0E9401020F910C9462070C9499
:1004D0004C100C944F1008950E94D1060E946B029C
:1004E0002FEF84E39CE0215080409040E1F700C072
:1004F00000000C942F190F931F93CF93DF938C015F
:1005000061E00E94D101EC01B8010E9499018823A9
:10051000A9F1B801CE010E944E17882379F1B801E4
:10052000CE010E942614882349F1B801CE010E9411
:10053000B816882319F1F8018281882361F0CB3540
:10054000FDE5DF0721F170F4C115ECE5DE07A1F050
:10055000CF3DDC45C9F0C801DF91CF911F910F91CC
:100560000C949701CC358DE5D807A1F0CD35DD454C
:1005700091F70E94AD0CEFCF0E946C0280E0DF91FA
:10058000CF911F910F9108950E94660DF7CF0E94A1
:10059000B60CE1CF0E94B90CDECF0E946A180C9411
:1005A000E5020E94E8020C946E1808950C94D5029E
:1005B00081E008950C94D8020895CF93C82F0E942B
:1005C000D6028C2FCF910C94DA0280E00C94DD02DD
:1005D0000E94AA170C94DD020E94AA1790918E0126
:1005E000981721F080938E010C94DD020895CF932B
:1005F000DF93CDB7DEB72B970FB6F894DEBF0FBEF3
:10060000CDBF4F83588769877A878B8761110E9496
:10061000FB0B1E821D8285E0FE013796DE011196DE
:1006200001900D928A95E1F78C819D81892B89F447
:1006300049815A816B817C818D819E810E941C0B36
:100640002B960FB6F894DEBF0FBECDBFDF91CF91D2
:10065000089589819A8189238F3F51F3CE010196B4
:100660000E94DA018111E4CFEBCFFC0180819181FE
:100670000C94BA08CF93C82F882309F490C082380D
:10068000C1F40E94AA1781FD8AC089E30E94B60BBB
:100690000E941B0C2FEF81EE94E02150804090408F
:1006A000E1F700C0000089E30E94BD0BCF910C94DC
:1006B0001B0C8338A1F40E94AA1780FD70C083E54B
:1006C0000E94B60B0E941B0C2FEF81EE94E021508C
:1006D00080409040E1F700C0000083E5E5CF84381A
:1006E000A1F40E94AA1782FD5AC087E40E94B60BAB
:1006F0000E941B0C2FEF81EE94E02150804090402F
:10070000E1F700C0000087E4CFCF8CEF8C0F813A77
:10071000B8F48C2F0E94FD15811141C06C2F80917F
:100720000201909103010E940D18882329F08C2F5B
:100730000E94BD0B0E941B0C8C2F0E94B60BB6CFE3
:1007400080E28C0F883048F4C77081E001C0880FC8
:10075000CA95EAF70E94DE0BA9CFEBE5EC0FE33078
:1007600040F4F0E0E95BFE4F808190E0CF910C9483
:10077000CF17E8E5EC0FE73150F4F0E0EE0FFF1F84
:10078000E75EFE4F80819181CF910C94E517CD3EBD
:1007900030F08C2F0E941E12CF910C94F112CF9149
:1007A0000895882309F452C0823871F40E94AA1770
:1007B00081FF4CC089E30E94B60B0E941B0C89E3A9
:1007C0000E94BD0B0C941B0C833859F40E94AA178D
:1007D00080FF3CC083E50E94B60B0E941B0C83E5A2
:1007E000EFCF843859F40E94AA1782FF2FC087E404
:1007F0000E94B60B0E941B0C87E4E2CF9CEF980F7F
:10080000913AF0F290E2980F983050F4877091E0AE
:1008100001C0990F8A95EAF7892F0E94E40BD2CF85
:100820009BE5980F933020F490E080E00C94CF1774
:1008300098E5980F973120F490E080E00C94E5174C
:100840008D3E20F00E9478120C94F11208951F93AF
:10085000CF93DF93182FEB010E943A03209731F4D6
:10086000812FDF91CF911F910C94D1038FE99FE0ED
:100870000197F1F700C000002197F0CF70E060E031
:10088000893311F460E570E00C942704882321F08B
:100890000E94DE0B0C941B0C0895882321F00E940B
:1008A000E40B0C941B0C0895BF92CF92DF92EF9251
:1008B000FF920F931F93CF93DF936C01D62FC72F17
:1008C000FC011281F580F2949FE0F9220E94D40B82
:1008D000E82E8823B9F0E12E1123A1F08C2F807F20
:1008E000803421F080E28D0F8830D0F08091520268
:1008F00082FD16C082E00E947C0C0E94D40B91E025
:10090000E82EE926BC2EB2948FE0B822FBE0FB155E
:1009100008F468C0EB2DF0E0E658FF4D0C940F2072
:10092000E12CF0CF0C2F0F70C07F11F00295007FEB
:10093000112399F0002359F080E28D0F883010F0D8
:10094000D11107C0802F0E94DE0B0E941B0C8D2F3F
:1009500041C0802F0E94EE0BF8CF8D2F0E94D10353
:10096000002309F43FC080E28D0F883010F0D111D0
:1009700004C0802F0E94E40B03C0802F0E94F40B60
:100980000E941B0C2FC00C2F0F70C07FC03211F0C3
:100990000295007FDD2381F0D13009F469C0112375
:1009A00009F473C0FF2009F469C0F601858180FF56
:1009B000CECF8F70858362C08091520282FF38C093
:1009C000112359F0002329F0802F0E94DE0B0E9492
:1009D0001B0C80E00E943A0305C080E00E94D10316
:1009E0000111C7CFEB2DE850FF0B349720F40E9484
:1009F000AA170E94DD02EE2009F472C10E94D00BFA
:100A000080FD6EC1F60112820E94CA0B0E94880707
:100A1000C6010E9491060E94CA0BDF91CF911F91DF
:100A20000F91FF90EF90DF90CF90BF900C94A907AB
:100A3000112389F0F11006C00E94FE0B802B0E944A
:100A40004604D0CF21E0F212F7CF0E94FE0B802B9C
:100A50000E94040CC7CFF11006C00E94110C802F19
:100A60000E944D04BFCF31E0F31609F4BBCFF5CFA0
:100A7000112331F085E08F1508F4B4CF802FDFCF3C
:100A800094E09F1508F4AECFEACFFF2041F3D933AD
:100A900049F4FFEF27EE33E0F15020403040E1F71A
:100AA00000C000008D2F0E94D1039CCF8C2F869513
:100AB0008695837069F0813009F094CF8D2F9C2F3B
:100AC0009370111102C090E080E00E94E5178ACF78
:100AD0008D2F9C2F9370111102C090E080E00E9436
:100AE000CF1780CF8D2F112329F00E941E120E9454
:100AF000F11278CF0E947812FACF8C2F837009F010
:100B000041C011116FCF4D2F429546954770440F4C
:100B1000440F0D2F0F7010E030E020E0042E04C0D1
:100B2000000F111F221F331F0A94D2F760E070E0FC
:100B3000CB01D4FF0FC06FE070E080E090E004C014
:100B4000660F771F881F991F4A95D2F76095709599
:100B500080959095C695C695C370602B712B822B9E
:100B6000932BC23049F058F4C13019F00E943A0773
:100B700039CF0E94280736CF0E944C0733CF0E94FE
:100B8000260730CF8695112311F08C2F8170882392
:100B900009F428CF4D2F429546954770440F440FD6
:100BA0000D2F0F7010E030E020E0042E04C0000F85
:100BB000111F221F331F0A94D2F760E070E0CB01AF
:100BC000D4FF0FC06FE070E080E090E004C0660FDB
:100BD000771F881F991F4A95D2F760957095809569
:100BE0009095C695C695C370602B712B822B932B65
:100BF000C23049F058F4C13019F00E94FF07F2CE1C
:100C00000E94ED07EFCE0E941108ECCE0E94620711
:100C1000E9CECF70112329F08C2F0E9488078D2FE9
:100C20000ECF8D2F0E944D048C2F0E94A907DACE83
:100C3000D23F51F160F4D03FB9F0D13F81F01123A0
:100C400009F449C0F11083CE8C2F8F7121C0D33F9E
:100C500011F1D43FA1F78091520282FF26C08C2F60
:100C60008F71112311F314C0112349F084E08F1503
:100C700008F4B8CE8C2F8F710E94CC07B3CE95E0CC
:100C80009F1508F4AFCEF6CF8C2F8F711111CDCFF9
:100C90000E948807A7CE112329F08C2F8F710E9404
:100CA0007307A0CE0E946E079DCE112349F0CF712D
:100CB0008C2F0E94880763E08C2F0E94610C92CEDB
:100CC00081E00E947C0CE1E0EF1508F08BCE82E021
:100CD0000E947C0C87CEF110DACE8C2F8F71A5CFBD
:100CE000DF91CF911F910F91FF90EF90DF90CF9008
:100CF000BF9008950F931F93CF93DF93EC0168810A
:100D000079818A810E94C4088C010E9423080E9474
:100D10002507B801CE01DF91CF911F910F910C945F
:100D20005404CF93DF93EC018B819C81892B29F0B4
:100D30008881998189238F3F59F4DF91CF9108955C
:100D4000CE010E947A06CE01DF91CF910C94DC0196
:100D5000CE010E947B028111F3CF0E94D40B882325
:100D600061F38A81882349F38091520282FDE5CFA5
:100D700082E0DF91CF910C947C0C90E080E00E94A7
:100D8000CF1790E080E00E94E5170E94FB0B0E94C5
:100D90001B0C0E9418140C94F1120E94C40B0C94AA
:100DA000BD060E94EB0B0C94CD0692959F70963079
:100DB00091F058F4925F9F70923058F4803F19F090
:100DC00030F4883E30F481E008959A5FF4CF843F98
:100DD000D1F380E00895883EB0F3813FD1F7F3CF9F
:100DE000FC01808191810E94BA080C94D506CF93B2
:100DF000DF9300D000D00F92CDB7DEB70F900F90E9
:100E00000F900F900F90DF91CF910895CF93DF93C4
:100E100000D000D000D0CDB7DEB726960FB6F8943C
:100E2000DEBF0FBECDBFDF91CF91089508950C9422
:100E300016070E9417076093C1017093C201809347
:100E4000C3019093C4010C94BD0608950C94190736
:100E50000F931F930091C1011091C2012091C30112
:100E60003091C401602B712B822B932B1F910F911A
:100E70000C9419070F931F930091C1011091C201A7
:100E80002091C3013091C4016023712382239323F5
:100E90001F910F910C9419070F931F930091C1019B
:100EA0001091C2012091C3013091C40160277127C4
:100EB000822793271F910F910C9419070C94160702
:100EC0000C945E070E9460076093BD017093BE01A1
:100ED0008093BF019093C0010C94BD0660E070E068
:100EE000CB010C9462070F931F9341E050E060E048
:100EF00070E08A019B0104C0000F111F221F331FE5
:100F00008A95D2F7C901B8011F910F910C9462071D
:100F10000F931F9341E050E060E070E004C0440F85
:100F2000551F661F771F8A95D2F78091BD0190915A
:100F3000BE01A091BF01B091C0018A019B01082BA5
:100F4000192B2A2B3B2BC901B8011F910F910C942F
:100F500062070F931F9341E050E060E070E004C02F
:100F6000440F551F661F771F8A95D2F7CB01BA0130
:100F700060957095809590950091BD011091BE018E
:100F80002091BF013091C0016023712382239323FC
:100F90001F910F910C9462070F931F9341E050E053
:100FA00060E070E004C0440F551F661F771F8A95EC
:100FB000D2F78091BD019091BE01A091BF01B09187
:100FC000C0018A019B01082719272A273B27C9014D
:100FD000B8011F910F910C9462070F931F9300911A
:100FE000BD011091BE012091BF013091C001602B65
:100FF000712B822B932B1F910F910C9462070F93EF
:101000001F930091BD011091BE012091BF0130914D
:10101000C00160237123822393231F910F910C94AD
:1010200062070F931F930091BD011091BE012091A3
:10103000BF013091C00160277127822793271F913C
:101040000F910C946207089527E0929F800D112460
:10105000982F977041E001C0440F9A95EAF7869562
:101060008695869595E0899FF0011124E057FE4F03
:1010700090E080E070E05191DF0111979B01082E14
:1010800002C0369527950A94E2F72170219525270D
:10109000242325272C9301968530910561F7089527
:1010A00027E0929F800D1124982F97708695869542
:1010B000869525E0829FF0011124E057FE4F50E015
:1010C00040E080E0219130E0092E02C0369527955E
:1010D0000A94E2F721703327042E01C0220F0A94EC
:1010E000EAF7822B4F5F5F4F4530510559F708955E
:1010F000BF92CF92DF92EF92FF920F931F93CF9305
:10110000DF938C01C090BD01D090BE01E090BF0183
:10111000F090C0018091C1019091C201A091C301E2
:10112000B091C401C82AD92AEA2AFB2ACFE1D0E02B
:10113000BC2ED701C6010C2E04C0B695A795979575
:1011400087950A94D2F780FD0EC0219788F7B12CBD
:101150008B2DDF91CF911F910F91FF90EF90DF903A
:10116000CF90BF900895B8018C2F0E94460F019731
:1011700061F3EECFCF93DF93EC010E947808BE01BC
:10118000DF91CF910C94460F1F93CF93DF93EB0128
:1011900090918F01992331F0CB01DF91CF911F9175
:1011A0000C94BA08882379F0CB010E947808182F94
:1011B000682FCE010E942408BE01812FDF91CF91BC
:1011C0001F910C94460FCB010E945008182FF4CFAA
:1011D0001F93CF93DF93C091C50116E08091C601A4
:1011E0008C1304C0DF91CF911F910895D0E01C9F14
:1011F000F0011D9FF00D1124E953FE4F40815181F4
:1012000062817381848195810E9406072196C7704F
:10121000E5CF4091F7015091F8016091F90170918B
:10122000FA018091FB019091FC010C940607FF925A
:101230000F931F93CF93DF938091FC01807FD1F4B4
:101240008091F9018823B1F08091C5011091C60108
:101250006091F7017091F801A091FA01B091FB0142
:10126000062F0723C0910001D091010196E0F92ECD
:10127000181306C0DF91CF911F910F91FF90089531
:1012800090E0109711F00F3F19F401968770F0CF9E
:10129000F89E9001F99E300D1124F901E953FE4F9B
:1012A00041814713F2CF40814613EFCF4281411174
:1012B000ECCF438154814A1B5B0B4C175D0728F729
:1012C0008091FC018F7080618093FC01F901E453EF
:1012D000FE4F80818F708061808387EF91E00E9454
:1012E0009106DF91CF911F910F91FF900C94E80828
:1012F000AF92BF92CF92DF92EF92FF920F931F9324
:10130000CF93DF93CDB7DEB761970FB6F894DEBF0A
:101310000FBECDBF8C0185E0F801DE011D96019066
:101320000D928A95E1F7F801E28087EFC82E81E0FF
:10133000D82E6091FA017091FB016115710509F4D5
:101340005FC19091F7012091F801892F82238F3F8F
:1013500009F456C140815181A380B480F090F90115
:10136000F501E61BF70BBF01E0910001F0910101CF
:10137000FF2009F4F6C08091FC01382F307F6E17F2
:101380007F0708F0AFC0311179C0FE2C251323C0B0
:10139000941321C0E1101FC08F7080618093FC0105
:1013A0000E940909C6010E9491068091FC01F80182
:1013B00085838F2D61960FB6F894DEBF0FBECDBF2B
:1013C000DF91CF911F910F91FF90EF90DF90CF9021
:1013D000BF90AF900895AB2829F0842F85238F3FCD
:1013E00009F027C180E0F82FF170DF2E80FF3CC0AC
:1013F0008091C5012091C60136E0821315C04D874A
:101400005E878D859E850E94BA08292F22952F70B0
:101410002230F0F0243018F59F70F1F0F80195813A
:10142000907FD1F4D12C1EC090E0389FF001399FFD
:10143000F00D1124E953FE4F6181651306C06081F0
:10144000641303C062816E110FC001968770D5CFFF
:101450009F7011F0882331F3805E883018F3C80143
:101460000E949106FD2CA5CFEE2009F4A2CF809119
:10147000FC0181608093FC01F12C9BCF251306C0F9
:10148000941304C0F801EE2009F487C0C8010E943B
:10149000F006882319F1EE2009F18091FC018032D9
:1014A00070F02091F7013091F80138872F83198669
:1014B000BB86AA868C87CE0107960E94910686E09D
:1014C000F801A7EFB1E001900D928A95E1F70E9433
:1014D00017090E940909FF24F3946BCFC8010E94E9
:1014E0009106F9CF311113C07A2DB98AA88A6E2DD1
:1014F00089890E94F70687EF91E00E94910686E0B5
:10150000F60111928A95E9F70E940909B5CF2513D2
:101510000FC094130DC0E1100BC0F8018583C80102
:101520000E94910686E0F60111928A95E9F741CF73
:10153000C8010E94F006882389F2EE2079F280919A
:10154000FC01803208F4BBCF2091F7013091F80103
:101550003A8329831B82BD82AC828E83CE010196A1
:10156000ACCF6E177F0708F03EC0FE2CEE2009F4CA
:10157000B5CF25132AC0941328C08091FC0180FDAB
:101580001BC0982F907FC1F0F8018583903F31F008
:10159000982F907F905F8F70892B8583C8010E9460
:1015A000910686E0F801A7EFB1E001900D928A95CF
:1015B000E1F70E940909FDCE86E0F801A7EFB1E04E
:1015C00001900D928A95E1F7F4CEC8010E94F006D1
:1015D000811175CF8091FC0181608093FC01C8016D
:1015E0000E949106E6CE7A2DB98AA88A6E2D898945
:1015F0000E94F70686E0F60111928A95E9F7D9CFA5
:10160000EE2009F46BCFC8010E94F006F82E882363
:1016100009F464CF86E0F801A7EFB1E001900D92E4
:101620008A95E1F787EF91E00E9435030E94170940
:10163000C0CF81E08E25D7CE1F93CF93DF93CDB758
:10164000DEB72C970FB6F894DEBF0FBECDBF4F8329
:10165000588769877A878B879C87CE0107960E9477
:101660007809882369F08A859B85892B39F04F8119
:101670005885842F85238F3F09F071C016E05FC025
:1016800086E0FE013796DE01119601900D928A9553
:10169000E1F78A859B85892B89F38F81988589233A
:1016A0008F3F61F32091C60130E0C9010196877038
:1016B00099274091C5014817190671F40E94D10677
:1016C0001092C6011092C50186E0E7EFF1E0DF015C
:1016D0001D928A95E9F7D2CF96E0929FD001939F11
:1016E000B00D1124A953BE4FFE01319601900D9209
:1016F0009A95E1F78093C6010E94E808BFCF819FC9
:10170000C001112489539E4F0E9478098823E9F073
:10171000E091C5011E9FF0011124E953FE4F408165
:10172000518162817381848195810E940607809135
:10173000C50190E00196877099278093C50180913B
:10174000C5019091C6018913DACF2C960FB6F89493
:10175000DEBF0FBECDBFDF91CF911F910895698588
:101760007A858B859C850E94060788CF682F80919B
:101770000201909103010C944318682F809102019B
:10178000909103010C9445188091020190910301FE
:101790000C94471880910502859585958595089547
:1017A000809105028770089590910502977081E0FD
:1017B00009F480E00895809110020895909110023C
:1017C000892B8093100208958095909110029823A0
:1017D00090931002089510921002089590910F02B4
:1017E000892B80930F020895809590910F02982382
:1017F00090930F02089510920F02089580910602AF
:10180000089508950C94010C9091520292FD08C025
:1018100090910602981721F0809306020C94020C16
:10182000089580910602882329F01092060280E034
:101830000C94020C0895CF93DF93E0910201F09194
:101840000301809110028083E0910201F091030175
:10185000808190910F02892B8083909106029923B9
:1018600081F0E0910201F09103018081892B808356
:1018700080910201909103010E94FB1781110E9447
:10188000110CC0910201D091030148E050E06DEFCE
:1018900071E0CE010E942920892B69F088E0FE01C9
:1018A000ADEFB1E001900D928A95E1F7CE01DF91A5
:1018B000CF910C94B617DF91CF91089508950C94B1
:1018C0005E0C9091520292FD10C098E0899F9001A9
:1018D0001124622B609305020E9488078091050203
:1018E0008595859585950C945F0C0C9488071092CE
:1018F000050280E00C945F0C90910502809589238D
:1019000080930502282F277091F4282F082E000CB1
:10191000330B9217130659F09091520292FD07C0B3
:101920008595859585950E94A9070C94770C089557
:101930009091520292FB222720F9281769F080FB30
:1019400092F99093520280915102909152020E941A
:10195000E20C82E00C947C0C08958091520282FB90
:10196000882780F991E089270C94980C81E00C94E9
:10197000980C80E00C94980C90E080E00E943E204F
:1019800021E0893E9E4F09F020E0822F089582E0F9
:1019900090E00C94362083E090E00C943620682F81
:1019A00083E090E00C944420CF9384E090E00E9488
:1019B0003620C82F82E290E00E943620982F8C2F8C
:1019C000CF910895CF93C92F682F84E090E00E94B3
:1019D00044206C2F82E290E0CF910C944420AB0124
:1019E000BC018FE090E00C945620AB01BC0183E178
:1019F00090E00C94562060E070E0CB010C94F50C64
:101A000060E070E0CB010E94EF0C0C94FB0C69EEDF
:101A10007EEF90E080E00E94622060E082E090E053
:101A20000E94442060E083E090E00E9444201092F5
:101A3000C1011092C2011092C3011092C40160E072
:101A400084E090E00E94442060E082E290E00E9406
:101A5000442060E085E090E00E94442060E086E061
:101A600090E00E9444206FEF87E090E00E944420C5
:101A700040E050E0BA0188E090E00E94562060E02B
:101A80008DE090E00E94442040E050E0BA0188E1FF
:101A900090E00E94562060E087E190E00E944420A0
:101AA00040E050E0BA018CE190E00E94562070E0E6
:101AB00060E080E290E00E94622040E050E0BA01E5
:101AC00088E190E00E9456200C94000D0C94070DC4
:101AD000682F8EE090E00C9444200E94F0186093F0
:101AE0001F02709320028093210290932202609340
:101AF0001B0270931C0280931D0290931E02089596
:101B000085B7806885BF85B7806885BF08950895CB
:101B100008950C94880D08950C948B0D0E94800DEF
:101B200084E290E10E94A0170E94870D0C94890D19
:101B300081E008950C94980D089508950E949C0DDD
:101B40000C949D0D0E9427100C94DC020E94DB185F
:101B50000E94F7100E94A20D0C948C0D9F92AF92E0
:101B6000BF92CF92DF92EF92FF920F931F93CF938A
:101B7000DF93CDB7DEB72A970FB6F894DEBF0FBE5E
:101B8000CDBF0E940C11C82E81110E946D0D81E104
:101B9000A82E82E0B82E10E000E0902E802F0E9448
:101BA0005110E82EF501F1905F01F81609F445C0D7
:101BB0008091230281FD0E9457108F2D8E25D12CFC
:101BC000FF24F394982F9F2199F10E949A0D882366
:101BD00099F0DE829F82EF2081E009F480E088871F
:101BE0000E94E4188160782F9A8789874E815F81EF
:101BF00068858A850E94F702F801EF5EFD4F8081BB
:101C0000F826F08281E0C11001C080E02A960FB66C
:101C1000F894DEBF0FBECDBFDF91CF911F910F9122
:101C2000FF90EF90DF90CF90BF90AF909F9008957E
:101C3000D394FF0CF7E0DF12C5CF0F5F1F4F0A30C0
:101C4000110509F0AACF8FEF89838A831B820E9436
:101C5000E4188160782F9D838C8349815A816B8140
:101C60008D810E94F702CECF0E94AE0D0E940C1310
:101C70000C94EC02CF93DF930E944A0FEC01811584
:101C800021E5920708F042C0811530E5930708F07E
:101C90009DC0883E910530F5803E910508F092C0C8
:101CA000883A910588F4853A910508F084C081301E
:101CB000910509F487C0009709F484C0049708F0DF
:101CC00081C0D0E0C0E07EC08F3B9105D0F7C85AFC
:101CD000D0E0CC0FDD1FC65BDE4F0990D881C02D50
:101CE000D46470C08115904250F4C11581E0D807CA
:101CF00008F068C0CD3ED10520F3D06563C0C115A2
:101D000090E4D907F0F2DF70D06A5CC0811525E558
:101D1000920700F5811534E5930708F08BC0811513
:101D200043E5940708F073C0C11582E5D80708F4AD
:101D300069C0CE018370992721E030E002C0220FF4
:101D4000331F8A95E2F7C695C69580E2C89FE001E9
:101D5000112454C0C11599E5D907A8F4C11528E587
:101D6000D20708F06CC0C11536E5D30708F0A9CF3B
:101D70008C2F0E94E10FC82FD0E0DC2FCC27CC277E
:101D8000DF71D0621FC0C1154AE5D40708F45CC0FA
:101D9000CE0190568115904208F093CF8D2F8F7110
:101DA0000E94E10F90E0982F882788279F719C015F
:101DB0002C2BE901E6CFC55AD0E0C858DE4FC881C8
:101DC000D0E0D064CE01DF91CF910895E4E0969504
:101DD0008795EA95E1F783702C2F26952695237039
:101DE00040E2249F90011124382B8C2F8370C1E096
:101DF000D0E002C0CC0FDD1F8A95E2F7C22BD32BB7
:101E0000DC68E0CFDC2FCC27C16FD06ADBCF8370DA
:101E1000992721E030E002C0220F331F8A95E2F7B4
:101E2000C695C69590E2C99FE0011124C22BD32B21
:101E3000DA68C8CFD82FCC27C46FD06AC3CFDC2FC5
:101E4000CC27C06FD06ABECF8C2F8F700E94E10F5D
:101E500034E0D695C7953A95E1F7CF709C2FEC0109
:101E6000D069B0CF972F70E027E0929F600D711D71
:101E70001124FB0196E4899FE00DF11D1124EE0F62
:101E8000FF1FE455FF4F8591949108950E94320FF2
:101E90000C943A0E82389105B1F1B0F4813391057A
:101EA00009F475C048F48932910509F469C08A3291
:101EB000910509F473C008958533910509F459C05B
:101EC0008933910501F10895833E9105A9F138F414
:101ED000803E9105F9F0823E910549F10895863ED4
:101EE0009105A9F1873E9105C9F1843E910519F547
:101EF0002091520221FF1FC08091510284FD14C025
:101F000087EE90E00895209151022370A1F080EEB9
:101F100090E008952091510220FD47C03091520277
:101F200030FF09C024FF44C090E080E004C020914D
:101F3000510222FDF7CF08952091510222FD3BC0AE
:101F40003091520230FDE3CF24FFF5CFEDCF209149
:101F5000510223FFF0CF24FDE7CFD2CF20915102D1
:101F600023FD2CC03091520231FFEECF84EE90E081
:101F700008952091510225FFDECF89E290E0089577
:101F80002091510225FFD7CF85E390E0089520915D
:101F9000510226FFD0CF8AE290E0089520915102AD
:101FA00026FFC9CF81E390E0089589E390E008958A
:101FB00083EE90E0089582EE90E0089586EE90E042
:101FC00008959091510292FF06C0282F2871283061
:101FD000F9F4877F846093FF06C0282F2871283189
:101FE000F1F4877E84612091520220FF06C0382FD1
:101FF00038713830D9F4877F816021FF06C0282FDF
:1020000028712831D1F4877E816194FD877E0895FF
:10201000282F24712430F9F68B7F8860DCCF282F9D
:102020002471243101F78B7E8861DDCF382F317127
:10203000313019F78E7F8860E0CF282F2171213150
:1020400021F78E7E8861E1CF80E0089508950E9497
:10205000BC0C811102C00E94660D0E94C70C8093C7
:1020600023020E94D40C90935202809351020E944A
:1020700026100E94CB0C682F70E090E080E00E9458
:1020800026076091BD017091BE018091BF019091C2
:10209000C0010C94600708950C944B1008950C94A3
:1020A0004E10E82FF0E0E35AFD4F80810895089527
:1020B00080EA8A95F1F7089500C008950C945810AD
:1020C000F894E82FE295EF70F0E031A1282F2F70FF
:1020D00081E090E001C0880F2A95EAF7982F90954B
:1020E000932391A392A1892B82A378940895CF93EF
:1020F000DF93C2E8D1E089918F3F11F00E94601018
:1021000081E0CC38D807B9F7CBE7D1E089918F3F90
:1021100011F00E94601081E0C238D807B9F7DF9152
:10212000CF910895CF92DF92EF92FF920F931F937A
:10213000CF93DF93EC01D62E062F10E0C8018E5707
:102140009E4F7C01FC0180818F3F09F445C0F894CB
:10215000E82FE295EF70F0E091A18F7021E030E080
:1021600001C0220F8A95EAF7892F822B81A382A1D1
:102170002095282322A378940E945C10EBE7F1E0DD
:1021800042E851E031E0C12C21912F3F71F1A22FA3
:10219000A295AF70B0E090968C9190E02F7002C045
:1021A000959587952A95E2F780FD1FC0832FC82A51
:1021B000330F4E175F0741F7F70180818F3F11F012
:1021C0000E94601061E0C11001C060E08D2D0E948E
:1021D0005E10C00FD11FC882DF91CF911F910F9168
:1021E000FF90EF90DF90CF90089580E0E0CF0E94C5
:1021F00077108AE0EDE5F2E0DF01982F1D929A95C5
:10220000E9F7E3E5F2E0DF011D928A95E9F78AE05C
:102210000E9457110C946702FF920F931F93CF9364
:10222000DF93CDB7DEB72A970FB6F894DEBF0FBEA7
:10223000CDBF8E010F5F1F4F8AE0F80111928A9582
:10224000E9F7F12C6F2DC8010E949210F394FAE087
:10225000FF12F8CF4AE050E0B80183E592E00E9417
:102260002920FF24F394009709F4F12C892B41F0E5
:102270008AE0F801A3E5B2E001900D928A95E1F7BA
:102280002F2D4AE06DE572E083E592E00E9458113F
:102290000E9469028F2D2A960FB6F894DEBF0FBEFA
:1022A000CDBFDF91CF911F910F91FF9008950895B9
:1022B000FF920F931F93CF93DF93F82E092F162FC2
:1022C000D72FC42F222349F081E0809326020E9459
:1022D000E41890932502809324028091260288239B
:1022E000A1F080912402909125020E94FC1805978C
:1022F00060F0EF2DF02FA12FBD2FCE0FDF2FD11DBE
:10230000EC17FD0741F410922602DF91CF911F9147
:102310000F91FF90089581918D93F2CF0E94CF1A73
:102320000E94A60D0C94DB1A0E94DF1A0E94340E44
:102330000C94F91A0E9484180E94B61A0E948E0DFD
:102340000E948E110E9494110E949E0DFBCF8091DD
:102350002D0280FF0DC06091090170E0660F771FAC
:102360006038710570F56115710569F1862F089562
:1023700081FF07C06091090184E0689FB0011124CA
:10238000EFCF6091090182FD0AC080912C02882361
:10239000A9F02091080160910901821710F088E0EE
:1023A000ECCF869FC001112433E0880F991F3A9526
:1023B000E1F7622F70E00E94FB1FD2CF68E070E06F
:1023C000D5CF8FE7089581E0089580912D0280FF99
:1023D0000CC06091050170E07595679575956795DE
:1023E0006115710549F1862F089581FF06C060913E
:1023F000050170E075956795F3CF6091050182FD49
:102400000BC090912B029923A1F06091040180915F
:102410000501961738F0682F70E06038710500F3F9
:102420008FE70895899FC001112470E00E94FB1F6F
:10243000F4CF61E070E0D7CF81E008958D3E31F4B4
:102440000E94A71181958093310208958E3E19F460
:102450000E94A711F8CF8F3E31F40E94A7118195F9
:10246000809330020895803F19F40E94A711F8CF9D
:10247000893F29F40E94E5118093320208958A3F32
:1024800021F40E94E5118195F7CF8B3F31F40E9432
:10249000E51181958093330208958C3F19F40E94D1
:1024A000E511F8CF9FE0980F983070F4815F990B99
:1024B00021E030E001C0220F8A95EAF780912F02D7
:1024C000822B80932F0208958D3F31F480912D024D
:1024D000816080932D0208958E3F21F480912D021A
:1024E0008260F7CF8F3FB9F780912D028460F1CFE2
:1024F000409130028D3E59F48091310287FF0DC02A
:102500001092310241110BC010922C0208C08E3E75
:1025100081F48091310218169CF3442381F080915C
:10252000320290913302892B09F05AC010922B028B
:1025300008958F3E49F447FFF0CF1092300280910A
:1025400031028111ECCFE0CF803F19F41416ACF3C7
:10255000E4CF90913202893F29F41916F4F61092D3
:102560003202DBCF8A3F19F497FFD7CFF8CF909193
:1025700033028B3F29F497FFD0CF10923302CDCF97
:102580008C3F19F41916CCF3C8CF9FE0980F983000
:1025900090F4815F990B21E030E0B90102C0660F31
:1025A000771F8A95E2F7CB01809590912F028923BE
:1025B00080932F02B2CF8D3F31F480912D028E7F18
:1025C00080932D02AACF8E3F21F480912D028D7F22
:1025D000F7CF8F3F09F0A1CF80912D028B7FF0CFF5
:1025E00008950E94E4189C0190913002809131027C
:1025F000982B21F030932A022093290290913202E5
:1026000080913302982B21F03093280220932702E7
:102610008EE292E00C94C117EF92FF920F931F93FA
:10262000CF93DF9300D000D000D0CDB7DEB786E0E7
:10263000EEE2F2E0DE01119601900D928A95E1F74B
:10264000E0903002F090310200913202109133029A
:102650001092300210923102109232021092330224
:102660008E2D8F2991F08091290290912A020E944B
:10267000FC18AC0190912C02992309F43FC0809181
:102680000A018417150608F447C0802F812B91F0AA
:1026900080912702909128020E94FC18AC01909131
:1026A0002B02992309F477C080910601841715063F
:1026B00008F47FC08091300290913102892B909173
:1026C0003202892B90913302892B11F00E94F11272
:1026D00086E0FE013196AEE2B2E001900D928A955D
:1026E000E1F726960FB6F894DEBF0FBECDBFDF919F
:1026F000CF911F910F91FF90EF90089520910B01C2
:102700008AE0289F900111242417350708F0BDCFD7
:102710009F5F90932C0202C09F3FD1F7EE2059F0AB
:102720000E94A7119FEF1E140CF491E0899F802D49
:10273000112480933002FF2059F00E94A7119FEFCF
:102740001F140CF491E0899F802D11248093310295
:1027500030913002332309F498CF209131022223A3
:1027600009F493CF45EB3403C0011124992359F0A8
:102770009093300245EB240390011124332339F068
:102780003093310282CF81E080933002F3CF81E039
:10279000809331027ACF209107018AE0289F90012F
:1027A00011242417350708F085CF9F5F90932B02E3
:1027B00002C09F3FD1F7002359F00E94E5119FEF1F
:1027C00010160CF491E0899F802D11248093320221
:1027D000112359F00E94E5119FEF11160CF491E0BE
:1027E000899F802D1124809333023091320233234C
:1027F00009F460CF20913302222309F45BCF45EB2B
:102800003403C0011124992359F09093320245EB0F
:10281000240390011124332339F0309333024ACF3B
:1028200081E080933202F3CF81E08093330242CF84
:1028300086E0EEE2F2E0DF011D928A95E9F7109260
:102840002C0210922B0210922D020895CF93DF9349
:10285000EC01FB018281882309F433C1C430FDE51A
:10286000DF07C0F5CB3F9CE5D90730F49E0122502D
:102870003C4524313105B0F50E94D40C90935202AE
:1028800080935102C1318CE5D80709F4EEC008F0FD
:1028900069C0C930ECE5DE0709F4D5C0C8F5C5301C
:1028A0008CE5D80709F4C7C000F5C330ECE5DE07B6
:1028B00009F4B9C008F0BBC0C230DC4509F4ADC0B2
:1028C00080915102909152020E94E20C0E94D10626
:1028D00080E008C0C236EDE5DE0771F2C63AFDE5DC
:1028E000DF0751F2DF91CF9108958091510280620C
:1028F000C7309CE5D90709F493C0809151028061EB
:10290000C830DC4508F48CC080915102806488C0D6
:10291000809151028B7FCD30FCE5DF0709F480C048
:1029200098F4809151028E7FCB309CE5D90709F451
:1029300077C0809151028C60CC30DC4508F470C0C7
:10294000809151028D7F6CC0809151028F7ECF307B
:10295000FCE5DF0709F464C008F47BC080915102F4
:102960008F7D5EC0CE3F9CE5D90709F47AC050F553
:10297000C531FCE5DF0709F486C098F48091510267
:10298000837FC3319CE5D90709F44AC008F471C0BC
:102990000E94D10690915102892F97FB87F98058A8
:1029A0003FC0CC3FFCE5DF0709F449C008F055C043
:1029B000809152028160CB3FDC4509F081CF80934A
:1029C00052027ECFC230EDE5DE0709F468C0A8F4FC
:1029D000C1158DE5D80709F452C080915202836079
:1029E000C130DD4560F380915202982F909591702F
:1029F0008E7F892B90FB81F9E2CFC236EDE5DE07B1
:102A000009F451C0C63AFDE5DF0709F453C0C330ED
:102A1000DD4509F055CF80E043C0809151028160CF
:102A2000809351024DCF809151028260F9CF809105
:102A300051028460F5CF809151028860F1CF80917E
:102A400052028260BCCF0E94D10680915102806800
:102A5000E7CF80915102877FE3CF809152028E7F32
:102A6000AECF809152028D7FAACF809151028F7B91
:102A7000D7CF0E94D106809151028F77D1CF80911C
:102A800052028C7F9CCF8091510282FB992790F952
:102A900021E0922790FB82F990FB83F9C1CF81E07E
:102AA0000E94680D0DCF90915102892F8F7E94FF67
:102AB0008061B6CF90915102892F8E7F90FF816007
:102AC000AFCF81E00FCF0F931F9341E050E060E064
:102AD00070E08A019B0104C0000F111F221F331FE9
:102AE0008A95D2F7C901B8010E9426071F910F915C
:102AF0000C94D1068B3109F461C040F58B3071F034
:102B000078F4863009F443C020F4853059F180E030
:102B10000895873009F444C08830C9F781E00895EA
:102B2000803109F459C068F48E3089F790912302FE
:102B3000892F8B7F92FF84608093230282FD48C09F
:102B4000EDCF863159F3893149F3E1CF8A32E1F093
:102B500060F48732A9F020F48E31C8F28D5111C093
:102B60008932A9F60E946C02D9CF833438F48A33B3
:102B7000F0F5853329F0883389F2C9CF833439F6EB
:102B800080E00E946315CACF0E94660DC7CF809176
:102B90002302807F8093230281E08093370208958F
:102BA00090912302892F8E7F90FF81608093230272
:102BB00080FDB4CF817F80932302B0CF9091230218
:102BC000892F8D7F91FF82608093230281FFA6CFA2
:102BD000809123028160EFCF90912302892F877F1C
:102BE00093FF88608093230283FDF2CF97CF8953B0
:102BF000C8CF80E008950C94F915CF93C82F809129
:102C000037028130B9F0882331F08230A1F110927F
:102C1000370280E00DC00E94DB0B8232D1F78C2F8F
:102C20000E94F91581111BC08C2F0E947A158170AA
:102C3000CF9108950E94DB0B823289F38C2F0E9482
:102C4000FB1581110AC0C43199F060F4CB3029F032
:102C5000C03169F782E08093370281E0E8CF81E0FC
:102C600090E0E5CFC93221F0C833B9F380E0DFCF7F
:102C700010923702FBCFC93209F440C0F0F4C431DE
:102C8000E9F1A8F481E0C73099F680930B0184E163
:102C900080930A018AE0809309018EE18093080104
:102CA00088E08093050188E28093040104C082EEED
:102CB0008C0F8A3070F181E0BBCFC03509F450C071
:102CC000B8F48AE0CF34B9F7E0913402F0913502DC
:102CD000309789F32081082E000C990B820F911DEB
:102CE0008F3F910509F00CF43FC08FEF8083E3CF55
:102CF000C135C1F181E0C23539F39ACF80913602F6
:102D00008823C9F2109236021092350210923402D2
:102D1000D2CFCD51C0933602C330C9F048F4C13090
:102D200099F08AE091E0C23051F010923602C3CFA0
:102D3000C53099F078F084E091E0C630B1F7909317
:102D4000350280933402B7CF8BE091E0F8CF89E071
:102D500091E0F5CF88E091E0F2CF85E091E0EFCF10
:102D600086EFB2CF8FEFB0CF97FFC0CF1082A3CF47
:102D7000CF93DF93EB0186319C4511F50E94DB0B6D
:102D80009A81992399F08A7A91E009F490E09093DE
:102D90003802811109C089E20E94B60B0E941B0C07
:102DA00080E0DF91CF91089585E3F6CF80913802DE
:102DB000811104C089E20E94BD0BF0CF85E3FBCFF7
:102DC00081E0EFCF0F931F93CF93DF93C42FD22FC8
:102DD000FC0182818823C9F040933B020E94E418E1
:102DE00090933A028093390280E28C0F883008F089
:102DF00050C0C77081E001C0880FCA95EAF7DF9123
:102E0000CF911F910F910C94460410913B02141323
:102E100035C08091390290913A020E94FC18883C9A
:102E2000910560F5C0E2CD0F1D17B9F080E2810F6A
:102E3000883040F4177081E001C0880F1A95EAF7D6
:102E40000E944D04C83048F481E09D2F977001C066
:102E5000880F9A95EAF70E944604802F0E943E044C
:102E6000C830B8F4D77081E001C0880FDA95EAF76E
:102E7000DF91CF911F910F910C944D0480E28C0F44
:102E8000883038F4C77081E001C0880FCA95EAF72E
:102E9000EFCFDF91CF911F910F9108950F939C0178
:102EA000CB01243F4CE5340759F1A8F4293DFCE55A
:102EB0003F0701F12A3D4CE53407D1F1283D3C455F
:102EC00091F406E221EE41EE68ED7CE50E94E21607
:102ED00080E00F910895263FFCE53F07E9F0B0F050
:102EE000273F3C45F9F0FC018281882339F110929B
:102EF0003B02EFCF07E225EE45EE69ED7CE5E6CF3C
:102F000006E221EE40EE64EF7CE5E0CF07E225EE3D
:102F100044EE65EF7CE5DACF06E221EE42EE66EFA5
:102F20007CE5D4CF07E225EE46EE67EF7CE5CECF19
:102F300008E221E045EE6AED7CE5C8CF81E0C9CF2B
:102F400090938D0180938C0108959093410280931A
:102F500040020895E0914002F0914102309721F043
:102F60000190F081E02D099480E00895E091400205
:102F7000F0914102309721F00280F381E02D099415
:102F80000895E0914002F0914102309739F022E03B
:102F9000DC012C930480F581E02D099408952091A3
:102FA0003E0230913F022817390771F090933F029B
:102FB00080933E02E0914002F0914102309721F06F
:102FC0000680F781E02D0994089520913C0230910C
:102FD0003D022817390771F090933D0280933C021F
:102FE000E0914002F0914102309721F00084F18598
:102FF000E02D099408959C012E5F3F4FAC01485F7E
:103000005F4F80E02417350709F40895F901919185
:103010009F019923B9F38F5FF5CF662349F0FC0137
:10302000329608962191261729F0E817F907D1F76B
:1030300080E0089581E008959C01FC0132969FEFA5
:1030400080E04191461751F09F3F19F4411101C0B2
:10305000982F8F5F8630A9F79F3F09F40895290FB5
:10306000311D97FD3A95F90162830895FC0132966E
:1030700008962191261303C0DF0111971C92E817CF
:10308000F907B9F708950C941C180C943618029699
:1030900026E0FC0111922A95E9F7089508950C9411
:1030A0004E18811105C081E0809342020C944F18A4
:1030B00082E0FACF83E0809342020C944F180C9484
:1030C000511881E0809342020C944F180C946118BF
:1030D000089508950C946918089508950C9468183B
:1030E000CF930E946C180E940C110E946D18C0E0D2
:1030F0008C2F0E945110811105C0CF5FCA30C1F7DB
:10310000CF91089581E0FCCF08951F921FB61F92C2
:1031100011248F939F93AF93BF93809143028111AA
:1031200013C08091670290916802A0916902B091EA
:103130006A024196A11DB11D8093670290936802B7
:10314000A0936902B0936A02BF91AF919F918F9152
:103150001F901FBE1F90189580916F02843031F12F
:103160000E94CD021092430288E190E020E40FB665
:10317000F894A895809360000FBE2093600083B7F9
:10318000817F846083BF83B7816083BF7894889593
:1031900083B78E7F83BF0FB6F894A89580916000A7
:1031A000886180936000109260000FBE08950E94B5
:1031B000D1060C94D10282E084BD93E095BD9AEFD4
:1031C00097BD80936E0008952FB7F89480916702A1
:1031D00090916802A0916902B0916A022FBF089590
:1031E0002FB7F8946091670270916802809169022C
:1031F00090916A022FBF08959C014FB7F894809177
:10320000670290916802A0916902B0916A024FBF73
:10321000821B930B089578941F921FB61F9211245E
:103220008F939F93AF93BF938091670290916802B1
:10323000A0916902B0916A020196A11DB11D80930F
:10324000670290936802A0936902B0936A02BF91EB
:10325000AF919F918F911F901FBE1F90189587E788
:1032600097E7909301088093000888E19AE00FB6F1
:10327000F894A895809360000FBE90936000FFCFF4
:1032800080914F02089508959C0182E08093E900A7
:103290009FEF8091E800915085FD06C085ED8A95ED
:1032A000F1F700009111F5CF8091E80085FF0CC087
:1032B00050E040E066E070E0C9010E946A1B809126
:1032C000E8008E778093E8000895CF93DF93EC01B8
:1032D00081E08093E9008FEF9091E800815095FDA7
:1032E00006C095ED9A95F1F700008111F5CF809118
:1032F000E80085FF14C050E040E068E070E0CE01D7
:103300000E946A1B8091E8008E778093E80088E035
:10331000FE01A7E4B2E001900D928A95E1F7DF91FA
:10332000CF910895809344027093460260934502C2
:1033300080916F02843001F582E08093E9008FEF85
:103340009091E800815095FD06C095ED9A95F1F7B2
:1033500000008111F5CF8091E80085FF0DC050E09D
:1033600040E063E070E084E492E00E946A1B809198
:10337000E8008E778093E8000895BC0184E00C9407
:103380009219BC0183E00C94921980916E02811114
:1033900009C00E94FA1C0E94571D8091E2008460BF
:1033A0008093E200089510926E0208950C946118C3
:1033B00060916B0281E0611101C080E00C945A18A9
:1033C00090916F0281E0943009F080E060916B028F
:1033D0000C945F1842E061EC81E00E94761C42E2AE
:1033E00061EC82E00E94761C90916F0281E0943043
:1033F00009F080E060916B020C9451188091710289
:10340000833009F460C030F48130C9F1823009F4AE
:103410009CC008958A3009F488C08B3009F46EC0CE
:10342000893009F04FC080917002813209F04AC0A2
:103430008091740290917502029708F043C08091C8
:10344000E800877F8093E8008091E80082FF36C023
:103450009091F3008091F200029731F48091F10095
:10346000813011F0863021F48091F10080934F0279
:103470008091E8008B778093E8000C94AA1C8091DF
:103480007002813AF9F48091E800877F8093E80028
:103490008091740290917502892B61F468E087E451
:1034A00092E070E00E94B91B8091E8008B778093D6
:1034B000E800089560E090E080E0F3CF80916F0233
:1034C0008111C2CF089580917002813AD9F780911D
:1034D000740290917502892BA9F78091E800877F8B
:1034E0008093E8008091E80080FFFCCF8091180174
:1034F0008093F1008091E8008E77BDCF80917002BB
:10350000813201F78091740290917502892BD1F676
:103510008091E800877F8093E8000E94AA1C809138
:103520007202809318010C94D1068091700281324E
:1035300049F68091E800877F8093E8000E94AA1CEA
:103540008091730280935002089580917002813AB5
:1035500009F0B8CF8091E800877F8093E8008091E0
:10356000E80080FFFCCF80915002C2CF84B7877FF4
:1035700084BF0FB6F894A89580916000886180930D
:103580006000109260000FBE80E890E00FB6F894E3
:1035900080936100909361000FBE0C9466180E94A6
:1035A000FA1C0E94571DE2EEF0E080818460808367
:1035B00078940C94E01F8CE091E00C94A517809116
:1035C0006F028530A9F480916F02853011F00C9460
:1035D000D7180E94AC1880916D028823A1F30E9435
:1035E0007018882381F30E94541B0E94D106EBCFF0
:1035F000089508950C94FC1A292F332723303105A0
:1036000019F168F42130310509F444C02230310544
:1036100009F445C090E080E030E020E025C0213290
:10362000310549F122323105A9F780E490E024E325
:1036300032E061157105C1F08BE790E029EB31E0D4
:103640006130710589F0E6CF99278130910581F0CD
:10365000009729F00297F1F6E8E3F1E002C0E8E60E
:10366000F1E0849190E09F01FA0131832083089575
:10367000E0E5F1E0F6CF89E090E02EE731E061157A
:10368000710591F389E090E027E931E0613071053F
:1036900059F3C0CF82E190E027EA31E0E5CF8BE338
:1036A00090E02CE631E0E0CF80E189BD82E189BD88
:1036B00009B400FEFDCF8091D8008F7D8093D800A3
:1036C0008091E00082608093E0008091E00081FDC5
:1036D000FCCF0895AF92BF92CF92DF92FF920F93EB
:1036E0001F93CF93DF936C01EB018A010E94C91CE9
:1036F000F82E811123C00115110539F0F8018081E0
:103700009181C81BD90BC80ED91EB12CA12C2097B2
:10371000A9F08091E80085FD22C08091E8008E77B5
:103720008093E80001151105A1F0F80180819181D5
:10373000A80EB91EB182A08285E0F82E8F2DDF91F0
:10374000CF911F910F91FF90DF90CF90BF90AF90DE
:1037500008950E94C91C8823D1F2F82EEFCFF601FC
:1037600081916F018093F1002197FFEFAF1ABF0A9B
:10377000CECFFC0180917602909177028617970751
:10378000A0F06115710529F49091E8009E7790935F
:10379000E80090E06115710551F4911108C0809125
:1037A000E80082FF34C080E00895BC01F2CF809130
:1037B0006F028823C1F18530C1F18091E80083FD5B
:1037C00030C08091E80082FDEACF8091E80080FF60
:1037D000E1CF8091F3002091F200382F611571053F
:1037E00019F02830310558F091E02830310509F002
:1037F00090E02091E8002E772093E800CBCF8191D4
:103800008093F100615071092F5F3F4FE7CF8091A6
:103810006F02882341F0853041F08091E80083FFFA
:10382000BECF81E0089582E0089583E00895FC0111
:10383000809176029091770286179707A0F0611524
:10384000710529F48091E8008E778093E80090E07C
:103850006115710551F4911108C08091E80082FF53
:1038600035C080E00895BC01F2CF80916F028823BB
:10387000C9F18530C9F18091E80083FD31C08091A4
:10388000E80082FDEACF8091E80080FFE1CF8091DF
:10389000F3002091F200382F6115710519F02830DE
:1038A000310558F091E02830310509F090E0809121
:1038B000E8008E778093E800CBCF84918093F1006D
:1038C0003196615071092F5F3F4FE6CF80916F02B3
:1038D000882341F0853041F08091E80083FFBDCF1F
:1038E00081E0089582E0089583E00895982F97304D
:1038F00028F08F708093E90081E008959093E900AB
:10390000242F762F50E0981731F07091EC00209121
:10391000ED005091F00021FD02C09F5FE8CF309193
:10392000EB003E7F3093EB003091ED003D7F309314
:10393000ED003091EB0031603093EB007093EC00C0
:103940002093ED005093F0002091EE0027FDE5CF8D
:1039500080E008958091700287FF13C08091E80095
:1039600082FF06C08091E8008B778093E80004C056
:1039700080916F028111F2CF089580916F028823A8
:10398000D9F38091E80080FFF8CF8091E8008E772E
:10399000ECCF2091E4003091E50095E6A90120915B
:1039A000EC00822F817020FF06C08091E80080FF2C
:1039B00006C080E008952091E80022FD1AC08091A1
:1039C0006F02882389F0853089F08091EB0085FDB6
:1039D0000FC02091E4003091E50042175307F9F23F
:1039E0009150E1F684E0089582E0089583E008951F
:1039F00081E008950E94681D0E94701DE0EEF0E0D5
:103A0000808181608083E8EDF0E080818F77808322
:103A100019BCA7EDB0E08C918E7F8C9380818F7E56
:103A2000808310926E0208950F931F93CF93DF93BC
:103A30000E94681D0E94701DC8EDD0E088818F77BC
:103A4000888388818068888388818F7D888319BC7A
:103A500010926F0210926B0210926D0210926C0223
:103A600000EE10E0F80180818B7F80838881816087
:103A7000888342E060E080E00E94761CE1EEF0E0A6
:103A800080818E7F8083E2EEF0E0808181608083A0
:103A9000808188608083F80180818E7F8083888127
:103AA00080618883DF91CF911F910F910895E8ED98
:103AB000F0E080818F7E8083E7EDF0E0808181609F
:103AC000808384E082BF81E080936E020C94141D99
:103AD000E8EDF0E080818E7F80831092E20008950F
:103AE0001092DA001092E10008951F920F920FB623
:103AF0000F9211242F933F934F935F936F937F9374
:103B00008F939F93AF93BF93EF93FF938091E100C7
:103B100082FF0BC08091E20082FF07C08091E1002C
:103B20008B7F8093E1000E94DF1F8091DA0080FF8D
:103B300019C08091D80080FF15C08091DA008E7F77
:103B40008093DA008091D90080FF96C080E189BD22
:103B500082E189BD09B400FEFDCF81E080936F0250
:103B60000E94C5198091E10080FF19C08091E20098
:103B700080FF15C08091E2008E7F8093E2008091EB
:103B8000E20080618093E2008091D800806280939F
:103B9000D80019BC85E080936F020E94D8198091EB
:103BA000E10084FF2BC08091E20084FF27C080E108
:103BB00089BD82E189BD89B5982F917080FFFBCFC7
:103BC0008091D8008F7D8093D8008091E1008F7E16
:103BD0008093E1008091E2008F7E8093E2008091EB
:103BE000E20081608093E20080916B02882309F4F7
:103BF00049C084E080936F020E94E0198091E10047
:103C000083FF29C08091E20083FF25C08091E100FD
:103C1000877F8093E10082E080936F0210926B02B5
:103C20008091E1008E7F8093E1008091E2008E7FA1
:103C30008093E2008091E20080618093E20042E0A4
:103C400060E080E00E94761C8091F00088608093A4
:103C5000F0000E94D619FF91EF91BF91AF919F9113
:103C60008F917F916F915F914F913F912F910F9025
:103C70000FBE0F901F90189519BC10926F020E94F2
:103C8000D31970CF8091E30087FD93E090936F028A
:103C9000B3CF1F920F920FB60F9211242F933F9321
:103CA0004F935F936F937F938F939F93AF93BF9344
:103CB000CF93DF93EF93FF93D091E900DF70809172
:103CC000EC00C82FC17080FDC0E81092E90080911F
:103CD000F000877F8093F00078940E948D1E1092F0
:103CE000E9008091F00088608093F000CD2BCF70C8
:103CF000C093E900FF91EF91DF91CF91BF91AF9118
:103D00009F918F917F916F915F914F913F912F91F3
:103D10000F900FBE0F901F9018951F93CF93DF93B6
:103D2000CDB7DEB7AA970FB6F894DEBF0FBECDBFF2
:103D300080E792E02091F100FC012193CF01F2E0B5
:103D400088379F07B9F70E94FE198091E80083FF2A
:103D50001EC180917002909171029A3008F017C1D3
:103D6000E92FF0E0EA57FF4D0C940F20803899F0CE
:103D7000823809F00CC1809174028F70873008F08E
:103D800006C18093E9008091EB0085FB882780F9CC
:103D90001092E90006C080916C0290916D02911121
:103DA00082609091E800977F9093E8008093F10003
:103DB0001092F1008091E8008E77E5C0882309F425
:103DC000D3C0823009F0E3C0809172028111D6C065
:103DD000809174028F702FEF280F263008F0D7C023
:103DE0008093E9002091EB0020FFC8C0933031F4AC
:103DF0008091EB0080628093EB00C0C09091EB005B
:103E000090619093EB0021E030E001C0220F8A9591
:103E1000EAF72093EA001092EA008091EB008860B4
:103E2000EACF8111B4C0109172021F778091E30034
:103E30008078812B8093E3008091E800877F8093D6
:103E4000E8000E94AA1C8091E80080FFFCCF8091CE
:103E5000E30080688093E30082E0111183E08093A7
:103E60006F0295C08058823008F091C08091720234
:103E7000909173028C3D23E09207A1F583E08A8341
:103E80008AE289834FB7F894DE01139620E03EE082
:103E900051E2E32FF0E050935700E49120FF03C07C
:103EA000E295EF703F5FEF708E2F90E0EA30C0F048
:103EB000C7968D939D932F5F243159F74FBF809103
:103EC000E800877F8093E8006AE270E0CE01019607
:103ED0000E94B91B8091E8008B778093E80057C05F
:103EE000C096E7CF6091740270917502AE014F5F8A
:103EF0005F4F0E94FA1ABC01892B09F448C09091C7
:103F0000E800977F9093E80089819A810E94171CAE
:103F1000E1CF8038E1F58091E800877F8093E80069
:103F200080916B028093F10045CF811130C0909158
:103F30007202923060F58091E800877F8093E800FC
:103F400090936B020E94AA1C80916B02882311F04F
:103F500084E005C08091E30087FDFACF81E0809383
:103F60006F020E94EA1913C080917202813079F4C5
:103F700081E0933009F080E080936D021092E900B7
:103F80008091E800877F8093E8000E94AA1C8091BE
:103F9000E80083FF0AC08091E800877F8093E800F3
:103FA0008091EB0080628093EB00AA960FB6F894A4
:103FB000DEBF0FBECDBFDF91CF911F910895089551
:103FC000CF9380916F028823A1F0C091E900CF7058
:103FD0009091EC00892F817090FD80E8C82B1092A1
:103FE000E9008091E80083FD0E948D1ECF70C09390
:103FF000E900CF91089597FB072E16F4009407D09F
:1040000077FD09D00E94152007FC05D03EF490955D
:1040100081959F4F0895709561957F4F0895EE0F9C
:10402000FF1F0590F491E02D0994AA1BBB1B51E1E1
:1040300007C0AA1FBB1FA617B70710F0A61BB70B18
:10404000881F991F5A95A9F780959095BC01CD01BD
:104050000895FB01DC0104C08D910190801921F4C9
:1040600041505040C8F7881B990B0895F999FECF2D
:1040700092BD81BDF89A992780B50895A8E1B0E076
:1040800042E050E00C946A20262FF999FECF92BDB1
:1040900081BDF89A019700B4021639F01FBA20BD0D
:1040A0000FB6F894FA9AF99A0FBE08950396272F3F
:1040B0000E9445200E944420252F0E944520242F45
:1040C0000C9445200196272F0E9445200C944420F3
:1040D000DC01CB01FC01F999FECF06C0F2BDE1BDC8
:1040E000F89A319600B40D9241505040B8F70895B7
:1040F000F894FFCF92049204C304C30456057205DA
:10410000F204F2047D05090618061806B61EDE1E26
:10411000C71FDE1EC71F111F321FC71F891F951F14
:10412000C8000702280850011E0A14014019651929
:104130004419C119BD19431901E200E900EA00B5AB
:1041400000B600B700CD008301CC008A0192019433
:10415000012102230224022502260227022A02B399
:1041600000B4006F007000818283E200E900EA0081
:10417000B500B600B700CD008301CC008A019201E2
:1041800094012102230224022502260227022A0288
:10419000B300B4006F007000818283F4F5F6F7314C
:0C41A000333293929190946697C63435A8
:00000001FF
